{"abi":[{"type":"constructor","inputs":[],"stateMutability":"nonpayable"},{"type":"function","name":"MintNFT","inputs":[{"name":"user","type":"address","internalType":"address"},{"name":"tokenURI","type":"string","internalType":"string"}],"outputs":[{"name":"","type":"uint256","internalType":"uint256"}],"stateMutability":"nonpayable"},{"type":"function","name":"approve","inputs":[{"name":"to","type":"address","internalType":"address"},{"name":"tokenId","type":"uint256","internalType":"uint256"}],"outputs":[],"stateMutability":"nonpayable"},{"type":"function","name":"balanceOf","inputs":[{"name":"owner","type":"address","internalType":"address"}],"outputs":[{"name":"","type":"uint256","internalType":"uint256"}],"stateMutability":"view"},{"type":"function","name":"getApproved","inputs":[{"name":"tokenId","type":"uint256","internalType":"uint256"}],"outputs":[{"name":"","type":"address","internalType":"address"}],"stateMutability":"view"},{"type":"function","name":"isApprovedForAll","inputs":[{"name":"owner","type":"address","internalType":"address"},{"name":"operator","type":"address","internalType":"address"}],"outputs":[{"name":"","type":"bool","internalType":"bool"}],"stateMutability":"view"},{"type":"function","name":"name","inputs":[],"outputs":[{"name":"","type":"string","internalType":"string"}],"stateMutability":"view"},{"type":"function","name":"ownerOf","inputs":[{"name":"tokenId","type":"uint256","internalType":"uint256"}],"outputs":[{"name":"","type":"address","internalType":"address"}],"stateMutability":"view"},{"type":"function","name":"safeTransferFrom","inputs":[{"name":"from","type":"address","internalType":"address"},{"name":"to","type":"address","internalType":"address"},{"name":"tokenId","type":"uint256","internalType":"uint256"}],"outputs":[],"stateMutability":"nonpayable"},{"type":"function","name":"safeTransferFrom","inputs":[{"name":"from","type":"address","internalType":"address"},{"name":"to","type":"address","internalType":"address"},{"name":"tokenId","type":"uint256","internalType":"uint256"},{"name":"data","type":"bytes","internalType":"bytes"}],"outputs":[],"stateMutability":"nonpayable"},{"type":"function","name":"setApprovalForAll","inputs":[{"name":"operator","type":"address","internalType":"address"},{"name":"approved","type":"bool","internalType":"bool"}],"outputs":[],"stateMutability":"nonpayable"},{"type":"function","name":"supportsInterface","inputs":[{"name":"interfaceId","type":"bytes4","internalType":"bytes4"}],"outputs":[{"name":"","type":"bool","internalType":"bool"}],"stateMutability":"view"},{"type":"function","name":"symbol","inputs":[],"outputs":[{"name":"","type":"string","internalType":"string"}],"stateMutability":"view"},{"type":"function","name":"tokenURI","inputs":[{"name":"tokenId","type":"uint256","internalType":"uint256"}],"outputs":[{"name":"","type":"string","internalType":"string"}],"stateMutability":"view"},{"type":"function","name":"transferFrom","inputs":[{"name":"from","type":"address","internalType":"address"},{"name":"to","type":"address","internalType":"address"},{"name":"tokenId","type":"uint256","internalType":"uint256"}],"outputs":[],"stateMutability":"nonpayable"},{"type":"event","name":"Approval","inputs":[{"name":"owner","type":"address","indexed":true,"internalType":"address"},{"name":"approved","type":"address","indexed":true,"internalType":"address"},{"name":"tokenId","type":"uint256","indexed":true,"internalType":"uint256"}],"anonymous":false},{"type":"event","name":"ApprovalForAll","inputs":[{"name":"owner","type":"address","indexed":true,"internalType":"address"},{"name":"operator","type":"address","indexed":true,"internalType":"address"},{"name":"approved","type":"bool","indexed":false,"internalType":"bool"}],"anonymous":false},{"type":"event","name":"BatchMetadataUpdate","inputs":[{"name":"_fromTokenId","type":"uint256","indexed":false,"internalType":"uint256"},{"name":"_toTokenId","type":"uint256","indexed":false,"internalType":"uint256"}],"anonymous":false},{"type":"event","name":"MetadataUpdate","inputs":[{"name":"_tokenId","type":"uint256","indexed":false,"internalType":"uint256"}],"anonymous":false},{"type":"event","name":"Transfer","inputs":[{"name":"from","type":"address","indexed":true,"internalType":"address"},{"name":"to","type":"address","indexed":true,"internalType":"address"},{"name":"tokenId","type":"uint256","indexed":true,"internalType":"uint256"}],"anonymous":false},{"type":"error","name":"ERC721IncorrectOwner","inputs":[{"name":"sender","type":"address","internalType":"address"},{"name":"tokenId","type":"uint256","internalType":"uint256"},{"name":"owner","type":"address","internalType":"address"}]},{"type":"error","name":"ERC721InsufficientApproval","inputs":[{"name":"operator","type":"address","internalType":"address"},{"name":"tokenId","type":"uint256","internalType":"uint256"}]},{"type":"error","name":"ERC721InvalidApprover","inputs":[{"name":"approver","type":"address","internalType":"address"}]},{"type":"error","name":"ERC721InvalidOperator","inputs":[{"name":"operator","type":"address","internalType":"address"}]},{"type":"error","name":"ERC721InvalidOwner","inputs":[{"name":"owner","type":"address","internalType":"address"}]},{"type":"error","name":"ERC721InvalidReceiver","inputs":[{"name":"receiver","type":"address","internalType":"address"}]},{"type":"error","name":"ERC721InvalidSender","inputs":[{"name":"sender","type":"address","internalType":"address"}]},{"type":"error","name":"ERC721NonexistentToken","inputs":[{"name":"tokenId","type":"uint256","internalType":"uint256"}]}],"bytecode":{"object":"0x60806040526001600755348015610014575f5ffd5b506040518060400160405280600581526020017f4d794e46540000000000000000000000000000000000000000000000000000008152506040518060400160405280600381526020017f4e46540000000000000000000000000000000000000000000000000000000000815250815f908161008f91906102e4565b50806001908161009f91906102e4565b5050506103b3565b5f81519050919050565b7f4e487b71000000000000000000000000000000000000000000000000000000005f52604160045260245ffd5b7f4e487b71000000000000000000000000000000000000000000000000000000005f52602260045260245ffd5b5f600282049050600182168061012257607f821691505b602082108103610135576101346100de565b5b50919050565b5f819050815f5260205f209050919050565b5f6020601f8301049050919050565b5f82821b905092915050565b5f600883026101977fffffffffffffffffffffffffffffffffffffffffffffffffffffffffffffffff8261015c565b6101a1868361015c565b95508019841693508086168417925050509392505050565b5f819050919050565b5f819050919050565b5f6101e56101e06101db846101b9565b6101c2565b6101b9565b9050919050565b5f819050919050565b6101fe836101cb565b61021261020a826101ec565b848454610168565b825550505050565b5f5f905090565b61022961021a565b6102348184846101f5565b505050565b5b818110156102575761024c5f82610221565b60018101905061023a565b5050565b601f82111561029c5761026d8161013b565b6102768461014d565b81016020851015610285578190505b6102996102918561014d565b830182610239565b50505b505050565b5f82821c905092915050565b5f6102bc5f19846008026102a1565b1980831691505092915050565b5f6102d483836102ad565b9150826002028217905092915050565b6102ed826100a7565b67ffffffffffffffff811115610306576103056100b1565b5b610310825461010b565b61031b82828561025b565b5f60209050601f83116001811461034c575f841561033a578287015190505b61034485826102c9565b8655506103ab565b601f19841661035a8661013b565b5f5b828110156103815784890151825560018201915060208501945060208101905061035c565b8683101561039e578489015161039a601f8916826102ad565b8355505b6001600288020188555050505b505050505050565b6124cf806103c05f395ff3fe608060405234801561000f575f5ffd5b50600436106100e8575f3560e01c806370a082311161008a578063a22cb46511610064578063a22cb4651461026c578063b88d4fde14610288578063c87b56dd146102a4578063e985e9c5146102d4576100e8565b806370a08231146101ee57806395d89b411461021e578063a06b4ca11461023c576100e8565b8063095ea7b3116100c6578063095ea7b31461016a57806323b872dd1461018657806342842e0e146101a25780636352211e146101be576100e8565b806301ffc9a7146100ec57806306fdde031461011c578063081812fc1461013a575b5f5ffd5b610106600480360381019061010191906118b9565b610304565b60405161011391906118fe565b60405180910390f35b610124610364565b6040516101319190611987565b60405180910390f35b610154600480360381019061014f91906119da565b6103f3565b6040516101619190611a44565b60405180910390f35b610184600480360381019061017f9190611a87565b61040e565b005b6101a0600480360381019061019b9190611ac5565b610424565b005b6101bc60048036038101906101b79190611ac5565b610523565b005b6101d860048036038101906101d391906119da565b610542565b6040516101e59190611a44565b60405180910390f35b61020860048036038101906102039190611b15565b610553565b6040516102159190611b4f565b60405180910390f35b610226610609565b6040516102339190611987565b60405180910390f35b61025660048036038101906102519190611c94565b610699565b6040516102639190611b4f565b60405180910390f35b61028660048036038101906102819190611d18565b6107de565b005b6102a2600480360381019061029d9190611df4565b6107f4565b005b6102be60048036038101906102b991906119da565b610819565b6040516102cb9190611987565b60405180910390f35b6102ee60048036038101906102e99190611e74565b610924565b6040516102fb91906118fe565b60405180910390f35b5f634906490660e01b7bffffffffffffffffffffffffffffffffffffffffffffffffffffffff1916827bffffffffffffffffffffffffffffffffffffffffffffffffffffffff1916148061035d575061035c826109b2565b5b9050919050565b60605f805461037290611edf565b80601f016020809104026020016040519081016040528092919081815260200182805461039e90611edf565b80156103e95780601f106103c0576101008083540402835291602001916103e9565b820191905f5260205f20905b8154815290600101906020018083116103cc57829003601f168201915b5050505050905090565b5f6103fd82610a93565b5061040782610b19565b9050919050565b610420828261041b610b52565b610b59565b5050565b5f73ffffffffffffffffffffffffffffffffffffffff168273ffffffffffffffffffffffffffffffffffffffff1603610494575f6040517f64a0ae9200000000000000000000000000000000000000000000000000000000815260040161048b9190611a44565b60405180910390fd5b5f6104a783836104a2610b52565b610b6b565b90508373ffffffffffffffffffffffffffffffffffffffff168173ffffffffffffffffffffffffffffffffffffffff161461051d578382826040517f64283d7b00000000000000000000000000000000000000000000000000000000815260040161051493929190611f0f565b60405180910390fd5b50505050565b61053d83838360405180602001604052805f8152506107f4565b505050565b5f61054c82610a93565b9050919050565b5f5f73ffffffffffffffffffffffffffffffffffffffff168273ffffffffffffffffffffffffffffffffffffffff16036105c4575f6040517f89c62b640000000000000000000000000000000000000000000000000000000081526004016105bb9190611a44565b60405180910390fd5b60035f8373ffffffffffffffffffffffffffffffffffffffff1673ffffffffffffffffffffffffffffffffffffffff1681526020019081526020015f20549050919050565b60606001805461061890611edf565b80601f016020809104026020016040519081016040528092919081815260200182805461064490611edf565b801561068f5780601f106106665761010080835404028352916020019161068f565b820191905f5260205f20905b81548152906001019060200180831161067257829003601f168201915b5050505050905090565b5f6008826040516106aa9190611f7e565b90815260200160405180910390205f9054906101000a900460ff1615610705576040517f08c379a00000000000000000000000000000000000000000000000000000000081526004016106fc90611fde565b60405180910390fd5b60016008836040516107179190611f7e565b90815260200160405180910390205f6101000a81548160ff0219169083151502179055505f73ffffffffffffffffffffffffffffffffffffffff168373ffffffffffffffffffffffffffffffffffffffff16036107a9576040517f08c379a00000000000000000000000000000000000000000000000000000000081526004016107a090612046565b60405180910390fd5b5f60075f81546107b890612091565b91905081905590506107ca8482610d76565b6107d48184610e69565b8091505092915050565b6107f06107e9610b52565b8383610ec3565b5050565b6107ff848484610424565b61081361080a610b52565b8585858561102c565b50505050565b606061082482610a93565b505f60065f8481526020019081526020015f20805461084290611edf565b80601f016020809104026020016040519081016040528092919081815260200182805461086e90611edf565b80156108b95780601f10610890576101008083540402835291602001916108b9565b820191905f5260205f20905b81548152906001019060200180831161089c57829003601f168201915b505050505090505f6108c96111d8565b90505f8151036108dd57819250505061091f565b5f825111156109115780826040516020016108f99291906120d8565b6040516020818303038152906040529250505061091f565b61091a846111ee565b925050505b919050565b5f60055f8473ffffffffffffffffffffffffffffffffffffffff1673ffffffffffffffffffffffffffffffffffffffff1681526020019081526020015f205f8373ffffffffffffffffffffffffffffffffffffffff1673ffffffffffffffffffffffffffffffffffffffff1681526020019081526020015f205f9054906101000a900460ff16905092915050565b5f7f80ac58cd000000000000000000000000000000000000000000000000000000007bffffffffffffffffffffffffffffffffffffffffffffffffffffffff1916827bffffffffffffffffffffffffffffffffffffffffffffffffffffffff19161480610a7c57507f5b5e139f000000000000000000000000000000000000000000000000000000007bffffffffffffffffffffffffffffffffffffffffffffffffffffffff1916827bffffffffffffffffffffffffffffffffffffffffffffffffffffffff1916145b80610a8c5750610a8b82611254565b5b9050919050565b5f5f610a9e836112bd565b90505f73ffffffffffffffffffffffffffffffffffffffff168173ffffffffffffffffffffffffffffffffffffffff1603610b1057826040517f7e273289000000000000000000000000000000000000000000000000000000008152600401610b079190611b4f565b60405180910390fd5b80915050919050565b5f60045f8381526020019081526020015f205f9054906101000a900473ffffffffffffffffffffffffffffffffffffffff169050919050565b5f33905090565b610b6683838360016112f6565b505050565b5f5f610b76846112bd565b90505f73ffffffffffffffffffffffffffffffffffffffff168373ffffffffffffffffffffffffffffffffffffffff1614610bb757610bb68184866114b5565b5b5f73ffffffffffffffffffffffffffffffffffffffff168173ffffffffffffffffffffffffffffffffffffffff1614610c4257610bf65f855f5f6112f6565b600160035f8373ffffffffffffffffffffffffffffffffffffffff1673ffffffffffffffffffffffffffffffffffffffff1681526020019081526020015f205f82825403925050819055505b5f73ffffffffffffffffffffffffffffffffffffffff168573ffffffffffffffffffffffffffffffffffffffff1614610cc157600160035f8773ffffffffffffffffffffffffffffffffffffffff1673ffffffffffffffffffffffffffffffffffffffff1681526020019081526020015f205f82825401925050819055505b8460025f8681526020019081526020015f205f6101000a81548173ffffffffffffffffffffffffffffffffffffffff021916908373ffffffffffffffffffffffffffffffffffffffff160217905550838573ffffffffffffffffffffffffffffffffffffffff168273ffffffffffffffffffffffffffffffffffffffff167fddf252ad1be2c89b69c2b068fc378daa952ba7f163c4a11628f55a4df523b3ef60405160405180910390a4809150509392505050565b5f73ffffffffffffffffffffffffffffffffffffffff168273ffffffffffffffffffffffffffffffffffffffff1603610de6575f6040517f64a0ae92000000000000000000000000000000000000000000000000000000008152600401610ddd9190611a44565b60405180910390fd5b5f610df283835f610b6b565b90505f73ffffffffffffffffffffffffffffffffffffffff168173ffffffffffffffffffffffffffffffffffffffff1614610e64575f6040517f73c6ac6e000000000000000000000000000000000000000000000000000000008152600401610e5b9190611a44565b60405180910390fd5b505050565b8060065f8481526020019081526020015f209081610e87919061229b565b507ff8e1a15aba9398e019f0b49df1a4fde98ee17ae345cb5f6b5e2c27f5033e8ce782604051610eb79190611b4f565b60405180910390a15050565b5f73ffffffffffffffffffffffffffffffffffffffff168273ffffffffffffffffffffffffffffffffffffffff1603610f3357816040517f5b08ba18000000000000000000000000000000000000000000000000000000008152600401610f2a9190611a44565b60405180910390fd5b8060055f8573ffffffffffffffffffffffffffffffffffffffff1673ffffffffffffffffffffffffffffffffffffffff1681526020019081526020015f205f8473ffffffffffffffffffffffffffffffffffffffff1673ffffffffffffffffffffffffffffffffffffffff1681526020019081526020015f205f6101000a81548160ff0219169083151502179055508173ffffffffffffffffffffffffffffffffffffffff168373ffffffffffffffffffffffffffffffffffffffff167f17307eab39ab6107e8899845ad3d59bd9653f200f220920489ca2b5937696c318360405161101f91906118fe565b60405180910390a3505050565b5f8373ffffffffffffffffffffffffffffffffffffffff163b11156111d1578273ffffffffffffffffffffffffffffffffffffffff1663150b7a02868685856040518563ffffffff1660e01b815260040161108a94939291906123bc565b6020604051808303815f875af19250505080156110c557506040513d601f19601f820116820180604052508101906110c2919061241a565b60015b611146573d805f81146110f3576040519150601f19603f3d011682016040523d82523d5f602084013e6110f8565b606091505b505f81510361113e57836040517f64a0ae920000000000000000000000000000000000000000000000000000000081526004016111359190611a44565b60405180910390fd5b805181602001fd5b63150b7a0260e01b7bffffffffffffffffffffffffffffffffffffffffffffffffffffffff1916817bffffffffffffffffffffffffffffffffffffffffffffffffffffffff1916146111cf57836040517f64a0ae920000000000000000000000000000000000000000000000000000000081526004016111c69190611a44565b60405180910390fd5b505b5050505050565b606060405180602001604052805f815250905090565b60606111f982610a93565b505f6112036111d8565b90505f8151116112215760405180602001604052805f81525061124c565b8061122b84611578565b60405160200161123c9291906120d8565b6040516020818303038152906040525b915050919050565b5f7f01ffc9a7000000000000000000000000000000000000000000000000000000007bffffffffffffffffffffffffffffffffffffffffffffffffffffffff1916827bffffffffffffffffffffffffffffffffffffffffffffffffffffffff1916149050919050565b5f60025f8381526020019081526020015f205f9054906101000a900473ffffffffffffffffffffffffffffffffffffffff169050919050565b808061132e57505f73ffffffffffffffffffffffffffffffffffffffff168273ffffffffffffffffffffffffffffffffffffffff1614155b15611460575f61133d84610a93565b90505f73ffffffffffffffffffffffffffffffffffffffff168373ffffffffffffffffffffffffffffffffffffffff16141580156113a757508273ffffffffffffffffffffffffffffffffffffffff168173ffffffffffffffffffffffffffffffffffffffff1614155b80156113ba57506113b88184610924565b155b156113fc57826040517fa9fbf51f0000000000000000000000000000000000000000000000000000000081526004016113f39190611a44565b60405180910390fd5b811561145e57838573ffffffffffffffffffffffffffffffffffffffff168273ffffffffffffffffffffffffffffffffffffffff167f8c5be1e5ebec7d5bd14f71427d1e84f3dd0314c0f7b2291e5b200ac8c7c3b92560405160405180910390a45b505b8360045f8581526020019081526020015f205f6101000a81548173ffffffffffffffffffffffffffffffffffffffff021916908373ffffffffffffffffffffffffffffffffffffffff16021790555050505050565b6114c0838383611642565b611573575f73ffffffffffffffffffffffffffffffffffffffff168373ffffffffffffffffffffffffffffffffffffffff160361153457806040517f7e27328900000000000000000000000000000000000000000000000000000000815260040161152b9190611b4f565b60405180910390fd5b81816040517f177e802f00000000000000000000000000000000000000000000000000000000815260040161156a929190612445565b60405180910390fd5b505050565b60605f600161158684611702565b0190505f8167ffffffffffffffff8111156115a4576115a3611b70565b5b6040519080825280601f01601f1916602001820160405280156115d65781602001600182028036833780820191505090505b5090505f82602001820190505b600115611637578080600190039150507f3031323334353637383961626364656600000000000000000000000000000000600a86061a8153600a858161162c5761162b61246c565b5b0494505f85036115e3575b819350505050919050565b5f5f73ffffffffffffffffffffffffffffffffffffffff168373ffffffffffffffffffffffffffffffffffffffff16141580156116f957508273ffffffffffffffffffffffffffffffffffffffff168473ffffffffffffffffffffffffffffffffffffffff1614806116ba57506116b98484610924565b5b806116f857508273ffffffffffffffffffffffffffffffffffffffff166116e083610b19565b73ffffffffffffffffffffffffffffffffffffffff16145b5b90509392505050565b5f5f5f90507a184f03e93ff9f4daa797ed6e38ed64bf6a1f010000000000000000831061175e577a184f03e93ff9f4daa797ed6e38ed64bf6a1f01000000000000000083816117545761175361246c565b5b0492506040810190505b6d04ee2d6d415b85acef8100000000831061179b576d04ee2d6d415b85acef810000000083816117915761179061246c565b5b0492506020810190505b662386f26fc1000083106117ca57662386f26fc1000083816117c0576117bf61246c565b5b0492506010810190505b6305f5e10083106117f3576305f5e10083816117e9576117e861246c565b5b0492506008810190505b612710831061181857612710838161180e5761180d61246c565b5b0492506004810190505b6064831061183b57606483816118315761183061246c565b5b0492506002810190505b600a831061184a576001810190505b80915050919050565b5f604051905090565b5f5ffd5b5f5ffd5b5f7fffffffff0000000000000000000000000000000000000000000000000000000082169050919050565b61189881611864565b81146118a2575f5ffd5b50565b5f813590506118b38161188f565b92915050565b5f602082840312156118ce576118cd61185c565b5b5f6118db848285016118a5565b91505092915050565b5f8115159050919050565b6118f8816118e4565b82525050565b5f6020820190506119115f8301846118ef565b92915050565b5f81519050919050565b5f82825260208201905092915050565b8281835e5f83830152505050565b5f601f19601f8301169050919050565b5f61195982611917565b6119638185611921565b9350611973818560208601611931565b61197c8161193f565b840191505092915050565b5f6020820190508181035f83015261199f818461194f565b905092915050565b5f819050919050565b6119b9816119a7565b81146119c3575f5ffd5b50565b5f813590506119d4816119b0565b92915050565b5f602082840312156119ef576119ee61185c565b5b5f6119fc848285016119c6565b91505092915050565b5f73ffffffffffffffffffffffffffffffffffffffff82169050919050565b5f611a2e82611a05565b9050919050565b611a3e81611a24565b82525050565b5f602082019050611a575f830184611a35565b92915050565b611a6681611a24565b8114611a70575f5ffd5b50565b5f81359050611a8181611a5d565b92915050565b5f5f60408385031215611a9d57611a9c61185c565b5b5f611aaa85828601611a73565b9250506020611abb858286016119c6565b9150509250929050565b5f5f5f60608486031215611adc57611adb61185c565b5b5f611ae986828701611a73565b9350506020611afa86828701611a73565b9250506040611b0b868287016119c6565b9150509250925092565b5f60208284031215611b2a57611b2961185c565b5b5f611b3784828501611a73565b91505092915050565b611b49816119a7565b82525050565b5f602082019050611b625f830184611b40565b92915050565b5f5ffd5b5f5ffd5b7f4e487b71000000000000000000000000000000000000000000000000000000005f52604160045260245ffd5b611ba68261193f565b810181811067ffffffffffffffff82111715611bc557611bc4611b70565b5b80604052505050565b5f611bd7611853565b9050611be38282611b9d565b919050565b5f67ffffffffffffffff821115611c0257611c01611b70565b5b611c0b8261193f565b9050602081019050919050565b828183375f83830152505050565b5f611c38611c3384611be8565b611bce565b905082815260208101848484011115611c5457611c53611b6c565b5b611c5f848285611c18565b509392505050565b5f82601f830112611c7b57611c7a611b68565b5b8135611c8b848260208601611c26565b91505092915050565b5f5f60408385031215611caa57611ca961185c565b5b5f611cb785828601611a73565b925050602083013567ffffffffffffffff811115611cd857611cd7611860565b5b611ce485828601611c67565b9150509250929050565b611cf7816118e4565b8114611d01575f5ffd5b50565b5f81359050611d1281611cee565b92915050565b5f5f60408385031215611d2e57611d2d61185c565b5b5f611d3b85828601611a73565b9250506020611d4c85828601611d04565b9150509250929050565b5f67ffffffffffffffff821115611d7057611d6f611b70565b5b611d798261193f565b9050602081019050919050565b5f611d98611d9384611d56565b611bce565b905082815260208101848484011115611db457611db3611b6c565b5b611dbf848285611c18565b509392505050565b5f82601f830112611ddb57611dda611b68565b5b8135611deb848260208601611d86565b91505092915050565b5f5f5f5f60808587031215611e0c57611e0b61185c565b5b5f611e1987828801611a73565b9450506020611e2a87828801611a73565b9350506040611e3b878288016119c6565b925050606085013567ffffffffffffffff811115611e5c57611e5b611860565b5b611e6887828801611dc7565b91505092959194509250565b5f5f60408385031215611e8a57611e8961185c565b5b5f611e9785828601611a73565b9250506020611ea885828601611a73565b9150509250929050565b7f4e487b71000000000000000000000000000000000000000000000000000000005f52602260045260245ffd5b5f6002820490506001821680611ef657607f821691505b602082108103611f0957611f08611eb2565b5b50919050565b5f606082019050611f225f830186611a35565b611f2f6020830185611b40565b611f3c6040830184611a35565b949350505050565b5f81905092915050565b5f611f5882611917565b611f628185611f44565b9350611f72818560208601611931565b80840191505092915050565b5f611f898284611f4e565b915081905092915050565b7f546f6b656e55524920616c7265616479207573656400000000000000000000005f82015250565b5f611fc8601583611921565b9150611fd382611f94565b602082019050919050565b5f6020820190508181035f830152611ff581611fbc565b9050919050565b7f496e76616c6964204164647265737300000000000000000000000000000000005f82015250565b5f612030600f83611921565b915061203b82611ffc565b602082019050919050565b5f6020820190508181035f83015261205d81612024565b9050919050565b7f4e487b71000000000000000000000000000000000000000000000000000000005f52601160045260245ffd5b5f61209b826119a7565b91507fffffffffffffffffffffffffffffffffffffffffffffffffffffffffffffffff82036120cd576120cc612064565b5b600182019050919050565b5f6120e38285611f4e565b91506120ef8284611f4e565b91508190509392505050565b5f819050815f5260205f209050919050565b5f6020601f8301049050919050565b5f82821b905092915050565b5f600883026121577fffffffffffffffffffffffffffffffffffffffffffffffffffffffffffffffff8261211c565b612161868361211c565b95508019841693508086168417925050509392505050565b5f819050919050565b5f61219c612197612192846119a7565b612179565b6119a7565b9050919050565b5f819050919050565b6121b583612182565b6121c96121c1826121a3565b848454612128565b825550505050565b5f5f905090565b6121e06121d1565b6121eb8184846121ac565b505050565b5b8181101561220e576122035f826121d8565b6001810190506121f1565b5050565b601f82111561225357612224816120fb565b61222d8461210d565b8101602085101561223c578190505b6122506122488561210d565b8301826121f0565b50505b505050565b5f82821c905092915050565b5f6122735f1984600802612258565b1980831691505092915050565b5f61228b8383612264565b9150826002028217905092915050565b6122a482611917565b67ffffffffffffffff8111156122bd576122bc611b70565b5b6122c78254611edf565b6122d2828285612212565b5f60209050601f831160018114612303575f84156122f1578287015190505b6122fb8582612280565b865550612362565b601f198416612311866120fb565b5f5b8281101561233857848901518255600182019150602085019450602081019050612313565b868310156123555784890151612351601f891682612264565b8355505b6001600288020188555050505b505050505050565b5f81519050919050565b5f82825260208201905092915050565b5f61238e8261236a565b6123988185612374565b93506123a8818560208601611931565b6123b18161193f565b840191505092915050565b5f6080820190506123cf5f830187611a35565b6123dc6020830186611a35565b6123e96040830185611b40565b81810360608301526123fb8184612384565b905095945050505050565b5f815190506124148161188f565b92915050565b5f6020828403121561242f5761242e61185c565b5b5f61243c84828501612406565b91505092915050565b5f6040820190506124585f830185611a35565b6124656020830184611b40565b9392505050565b7f4e487b71000000000000000000000000000000000000000000000000000000005f52601260045260245ffdfea26469706673582212201619323fa17a51e34d9e92acf6f3f349ef122ea911dcb7c7e4da9b826c22132b64736f6c634300081c0033","linkReferences":{}},"methodIdentifiers":{"MintNFT(address,string)":"a06b4ca1","approve(address,uint256)":"095ea7b3","balanceOf(address)":"70a08231","getApproved(uint256)":"081812fc","isApprovedForAll(address,address)":"e985e9c5","name()":"06fdde03","ownerOf(uint256)":"6352211e","safeTransferFrom(address,address,uint256)":"42842e0e","safeTransferFrom(address,address,uint256,bytes)":"b88d4fde","setApprovalForAll(address,bool)":"a22cb465","supportsInterface(bytes4)":"01ffc9a7","symbol()":"95d89b41","tokenURI(uint256)":"c87b56dd","transferFrom(address,address,uint256)":"23b872dd"},"id":36}